{"abi":[{"type":"function","name":"emitCIDToPIN","inputs":[{"name":"cid","type":"string","internalType":"string"}],"outputs":[],"stateMutability":"nonpayable"},{"type":"event","name":"CIDToPIN","inputs":[{"name":"cid","type":"string","indexed":false,"internalType":"string"}],"anonymous":false}],"bytecode":{"object":"0x608060405234801561001057600080fd5b506101d1806100206000396000f3fe608060405234801561001057600080fd5b506004361061002b5760003560e01c80638f5ae04614610030575b600080fd5b61004361003e366004610095565b610045565b005b7f34ab36d6c284c512a0f41204d317bff9e3f93495820537e17baff132bdc6b119816040516100749190610146565b60405180910390a150565b634e487b7160e01b600052604160045260246000fd5b6000602082840312156100a757600080fd5b813567ffffffffffffffff808211156100bf57600080fd5b818401915084601f8301126100d357600080fd5b8135818111156100e5576100e561007f565b604051601f8201601f19908116603f0116810190838211818310171561010d5761010d61007f565b8160405282815287602084870101111561012657600080fd5b826020860160208301376000928101602001929092525095945050505050565b600060208083528351808285015260005b8181101561017357858101830151858201604001528201610157565b81811115610185576000604083870101525b50601f01601f191692909201604001939250505056fea2646970667358221220d6793ec47ab368e768b51276fadf1f86ef4625b17093a556b6994b9d8c45e6f264736f6c634300080c0033","linkReferences":{}},"methodIdentifiers":{"emitCIDToPIN(string)":"8f5ae046"},"id":0}